{
  "address": "0xf87bcb8059101a944b0d058B323AE09EE8302c91",
  "abi": [
    {
      "anonymous": false,
      "inputs": [
        {
          "indexed": false,
          "internalType": "string",
          "name": "listingID",
          "type": "string"
        },
        {
          "indexed": false,
          "internalType": "address",
          "name": "owner",
          "type": "address"
        }
      ],
      "name": "ServiceCompleted",
      "type": "event"
    },
    {
      "anonymous": false,
      "inputs": [
        {
          "indexed": false,
          "internalType": "string",
          "name": "listingID",
          "type": "string"
        },
        {
          "indexed": false,
          "internalType": "address",
          "name": "owner",
          "type": "address"
        },
        {
          "indexed": false,
          "internalType": "uint32",
          "name": "price",
          "type": "uint32"
        },
        {
          "indexed": false,
          "internalType": "uint32",
          "name": "quantity",
          "type": "uint32"
        }
      ],
      "name": "ServiceListed",
      "type": "event"
    },
    {
      "anonymous": false,
      "inputs": [
        {
          "indexed": false,
          "internalType": "string",
          "name": "listingID",
          "type": "string"
        },
        {
          "indexed": false,
          "internalType": "address",
          "name": "buyer",
          "type": "address"
        },
        {
          "indexed": false,
          "internalType": "uint32",
          "name": "quantity",
          "type": "uint32"
        }
      ],
      "name": "ServicePurchased",
      "type": "event"
    },
    {
      "inputs": [
        {
          "internalType": "string",
          "name": "_listingID",
          "type": "string"
        }
      ],
      "name": "confirmServiceCompletion",
      "outputs": [],
      "stateMutability": "nonpayable",
      "type": "function"
    },
    {
      "inputs": [
        {
          "internalType": "string",
          "name": "_title",
          "type": "string"
        },
        {
          "internalType": "string",
          "name": "_description",
          "type": "string"
        },
        {
          "internalType": "uint32",
          "name": "_price",
          "type": "uint32"
        },
        {
          "internalType": "uint32",
          "name": "_quantity",
          "type": "uint32"
        },
        {
          "internalType": "string",
          "name": "_formSelectionType",
          "type": "string"
        },
        {
          "internalType": "string",
          "name": "_image",
          "type": "string"
        },
        {
          "internalType": "string",
          "name": "_listingID",
          "type": "string"
        }
      ],
      "name": "createService",
      "outputs": [],
      "stateMutability": "nonpayable",
      "type": "function"
    },
    {
      "inputs": [
        {
          "internalType": "string",
          "name": "_listingID",
          "type": "string"
        },
        {
          "internalType": "uint32",
          "name": "_quantity",
          "type": "uint32"
        }
      ],
      "name": "purchaseService",
      "outputs": [],
      "stateMutability": "payable",
      "type": "function"
    },
    {
      "inputs": [
        {
          "internalType": "string",
          "name": "",
          "type": "string"
        }
      ],
      "name": "services",
      "outputs": [
        {
          "internalType": "string",
          "name": "title",
          "type": "string"
        },
        {
          "internalType": "string",
          "name": "description",
          "type": "string"
        },
        {
          "internalType": "uint32",
          "name": "price",
          "type": "uint32"
        },
        {
          "internalType": "uint32",
          "name": "quantity",
          "type": "uint32"
        },
        {
          "internalType": "string",
          "name": "formSelectionType",
          "type": "string"
        },
        {
          "internalType": "string",
          "name": "image",
          "type": "string"
        },
        {
          "internalType": "address payable",
          "name": "creatorWallet",
          "type": "address"
        },
        {
          "internalType": "bool",
          "name": "isCompleted",
          "type": "bool"
        }
      ],
      "stateMutability": "view",
      "type": "function"
    }
  ],
  "transactionHash": "0xd34632114aa4e164fb210c7aeddd49b13a92ea4faad2b5f0edf4bfa687a7c016",
  "args": [],
  "numDeployments": 1,
  "solcInputHash": "9fbd038776df49bca263542710fd74e6",
  "bytecode": "0x608060405234801561001057600080fd5b50610e0a806100206000396000f3fe60806040526004361061003f5760003560e01c806323340557146100445780633017ba091461006657806385440d1c146100a3578063bbcdf131146100b6575b600080fd5b34801561005057600080fd5b5061006461005f3660046108fa565b6100d6565b005b34801561007257600080fd5b506100866100813660046108fa565b61025c565b60405161009a989796959493929190610987565b60405180910390f35b6100646100b1366004610a2a565b6104e6565b3480156100c257600080fd5b506100646100d1366004610a78565b61065a565b600080826040516100e79190610b6b565b9081526040519081900360200190206005810154909150336001600160a01b03909116146101755760405162461bcd60e51b815260206004820152603060248201527f4f6e6c792074686520736572766963652070726f76696465722063616e20636f60448201526f373334b9369031b7b6b83632ba34b7b760811b60648201526084015b60405180910390fd5b6005810154600160a01b900460ff16156101d15760405162461bcd60e51b815260206004820152601960248201527f5365727669636520616c726561647920636f6d706c6574656400000000000000604482015260640161016c565b60058101805460ff60a01b198116600160a01b179091556040516001600160a01b03909116904780156108fc02916000818181858888f1935050505015801561021e573d6000803e3d6000fd5b507fdcde1585e07c17affe7826d5641edcbcf609c0fcd6c088d3596f0a53c890775d8233604051610250929190610b87565b60405180910390a15050565b805160208183018101805160008252928201919093012091528054819061028290610bb1565b80601f01602080910402602001604051908101604052809291908181526020018280546102ae90610bb1565b80156102fb5780601f106102d0576101008083540402835291602001916102fb565b820191906000526020600020905b8154815290600101906020018083116102de57829003601f168201915b50505050509080600101805461031090610bb1565b80601f016020809104026020016040519081016040528092919081815260200182805461033c90610bb1565b80156103895780601f1061035e57610100808354040283529160200191610389565b820191906000526020600020905b81548152906001019060200180831161036c57829003601f168201915b505050506002830154600384018054939463ffffffff80841695640100000000909404169350916103b990610bb1565b80601f01602080910402602001604051908101604052809291908181526020018280546103e590610bb1565b80156104325780601f1061040757610100808354040283529160200191610432565b820191906000526020600020905b81548152906001019060200180831161041557829003601f168201915b50505050509080600401805461044790610bb1565b80601f016020809104026020016040519081016040528092919081815260200182805461047390610bb1565b80156104c05780601f10610495576101008083540402835291602001916104c0565b820191906000526020600020905b8154815290600101906020018083116104a357829003601f168201915b505050600590930154919250506001600160a01b0381169060ff600160a01b9091041688565b600080836040516104f79190610b6b565b908152604051908190036020019020600281015490915063ffffffff6401000000009091048116908316111561056f5760405162461bcd60e51b815260206004820152601d60248201527f4e6f7420656e6f75676820636170616369747920617661696c61626c65000000604482015260640161016c565b600281015461058590839063ffffffff16610c01565b63ffffffff1634146105d95760405162461bcd60e51b815260206004820152601e60248201527f496e636f727265637420616d6f756e74206f662045746865722073656e740000604482015260640161016c565b818160020160048282829054906101000a900463ffffffff166105fc9190610c29565b92506101000a81548163ffffffff021916908363ffffffff1602179055507f72315a13232dfaf416749785faf573a7247431c6384d243d27594c1059a5b92e83338460405161064d93929190610c4d565b60405180910390a1505050565b60006001600160a01b03166000826040516106759190610b6b565b908152604051908190036020019020600501546001600160a01b0316146106de5760405162461bcd60e51b815260206004820152601960248201527f4c697374696e6720494420616c72656164792065786973747300000000000000604482015260640161016c565b6040518061010001604052808881526020018781526020018663ffffffff1681526020018563ffffffff168152602001848152602001838152602001336001600160a01b03168152602001600015158152506000826040516107409190610b6b565b9081526040519081900360200190208151819061075d9082610cd5565b50602082015160018201906107729082610cd5565b506040820151600282018054606085015163ffffffff9081166401000000000267ffffffffffffffff19909216931692909217919091179055608082015160038201906107bf9082610cd5565b5060a082015160048201906107d49082610cd5565b5060c08201516005909101805460e0909301511515600160a01b026001600160a81b03199093166001600160a01b03909216919091179190911790556040517fe4d998ac73159b9f3c76965d8a04dc713b5753d7ab8d119055e64b5dfe27dc2b90610846908390339089908990610d95565b60405180910390a150505050505050565b634e487b7160e01b600052604160045260246000fd5b600082601f83011261087e57600080fd5b813567ffffffffffffffff8082111561089957610899610857565b604051601f8301601f19908116603f011681019082821181831017156108c1576108c1610857565b816040528381528660208588010111156108da57600080fd5b836020870160208301376000602085830101528094505050505092915050565b60006020828403121561090c57600080fd5b813567ffffffffffffffff81111561092357600080fd5b61092f8482850161086d565b949350505050565b60005b8381101561095257818101518382015260200161093a565b50506000910152565b60008151808452610973816020860160208601610937565b601f01601f19169290920160200192915050565b600061010080835261099b8184018c61095b565b905082810360208401526109af818b61095b565b63ffffffff8a8116604086015289166060850152838103608085015290506109d7818861095b565b905082810360a08401526109eb818761095b565b6001600160a01b039590951660c0840152505090151560e0909101529695505050505050565b803563ffffffff81168114610a2557600080fd5b919050565b60008060408385031215610a3d57600080fd5b823567ffffffffffffffff811115610a5457600080fd5b610a608582860161086d565b925050610a6f60208401610a11565b90509250929050565b600080600080600080600060e0888a031215610a9357600080fd5b873567ffffffffffffffff80821115610aab57600080fd5b610ab78b838c0161086d565b985060208a0135915080821115610acd57600080fd5b610ad98b838c0161086d565b9750610ae760408b01610a11565b9650610af560608b01610a11565b955060808a0135915080821115610b0b57600080fd5b610b178b838c0161086d565b945060a08a0135915080821115610b2d57600080fd5b610b398b838c0161086d565b935060c08a0135915080821115610b4f57600080fd5b50610b5c8a828b0161086d565b91505092959891949750929550565b60008251610b7d818460208701610937565b9190910192915050565b604081526000610b9a604083018561095b565b905060018060a01b03831660208301529392505050565b600181811c90821680610bc557607f821691505b602082108103610be557634e487b7160e01b600052602260045260246000fd5b50919050565b634e487b7160e01b600052601160045260246000fd5b63ffffffff818116838216028082169190828114610c2157610c21610beb565b505092915050565b63ffffffff828116828216039080821115610c4657610c46610beb565b5092915050565b606081526000610c60606083018661095b565b6001600160a01b039490941660208301525063ffffffff91909116604090910152919050565b601f821115610cd057600081815260208120601f850160051c81016020861015610cad5750805b601f850160051c820191505b81811015610ccc57828155600101610cb9565b5050505b505050565b815167ffffffffffffffff811115610cef57610cef610857565b610d0381610cfd8454610bb1565b84610c86565b602080601f831160018114610d385760008415610d205750858301515b600019600386901b1c1916600185901b178555610ccc565b600085815260208120601f198616915b82811015610d6757888601518255948401946001909101908401610d48565b5085821015610d855787850151600019600388901b60f8161c191681555b5050505050600190811b01905550565b608081526000610da8608083018761095b565b6001600160a01b039590951660208301525063ffffffff9283166040820152911660609091015291905056fea2646970667358221220e36d48660ac3f9578f26f0e5ba8c77eceb6d517d74cab6631711dfafeb3d09cf64736f6c63430008110033",
  "devdoc": {
    "kind": "dev",
    "methods": {},
    "version": 1
  },
  "userdoc": {
    "kind": "user",
    "methods": {},
    "version": 1
  },
  "storageLayout": {
    "storage": [
      {
        "astId": 606,
        "contract": "contracts/Service.sol:ServiceContract",
        "label": "services",
        "offset": 0,
        "slot": "0",
        "type": "t_mapping(t_string_memory_ptr,t_struct(ServiceData)647_storage)"
      }
    ],
    "types": {
      "t_address_payable": {
        "encoding": "inplace",
        "label": "address payable",
        "numberOfBytes": "20"
      },
      "t_bool": {
        "encoding": "inplace",
        "label": "bool",
        "numberOfBytes": "1"
      },
      "t_mapping(t_string_memory_ptr,t_struct(ServiceData)647_storage)": {
        "encoding": "mapping",
        "key": "t_string_memory_ptr",
        "label": "mapping(string => struct ServiceContract.ServiceData)",
        "numberOfBytes": "32",
        "value": "t_struct(ServiceData)647_storage"
      },
      "t_string_memory_ptr": {
        "encoding": "bytes",
        "label": "string",
        "numberOfBytes": "32"
      },
      "t_string_storage": {
        "encoding": "bytes",
        "label": "string",
        "numberOfBytes": "32"
      },
      "t_struct(ServiceData)647_storage": {
        "encoding": "inplace",
        "label": "struct ServiceContract.ServiceData",
        "members": [
          {
            "astId": 632,
            "contract": "contracts/Service.sol:ServiceContract",
            "label": "title",
            "offset": 0,
            "slot": "0",
            "type": "t_string_storage"
          },
          {
            "astId": 634,
            "contract": "contracts/Service.sol:ServiceContract",
            "label": "description",
            "offset": 0,
            "slot": "1",
            "type": "t_string_storage"
          },
          {
            "astId": 636,
            "contract": "contracts/Service.sol:ServiceContract",
            "label": "price",
            "offset": 0,
            "slot": "2",
            "type": "t_uint32"
          },
          {
            "astId": 638,
            "contract": "contracts/Service.sol:ServiceContract",
            "label": "quantity",
            "offset": 4,
            "slot": "2",
            "type": "t_uint32"
          },
          {
            "astId": 640,
            "contract": "contracts/Service.sol:ServiceContract",
            "label": "formSelectionType",
            "offset": 0,
            "slot": "3",
            "type": "t_string_storage"
          },
          {
            "astId": 642,
            "contract": "contracts/Service.sol:ServiceContract",
            "label": "image",
            "offset": 0,
            "slot": "4",
            "type": "t_string_storage"
          },
          {
            "astId": 644,
            "contract": "contracts/Service.sol:ServiceContract",
            "label": "creatorWallet",
            "offset": 0,
            "slot": "5",
            "type": "t_address_payable"
          },
          {
            "astId": 646,
            "contract": "contracts/Service.sol:ServiceContract",
            "label": "isCompleted",
            "offset": 20,
            "slot": "5",
            "type": "t_bool"
          }
        ],
        "numberOfBytes": "192"
      },
      "t_uint32": {
        "encoding": "inplace",
        "label": "uint32",
        "numberOfBytes": "4"
      }
    }
  }
}